{
  "contractName": "PurePhysicsAssets",
  "abi": [
    {
      "inputs": [],
      "stateMutability": "nonpayable",
      "type": "constructor"
    },
    {
      "inputs": [
        {
          "internalType": "address",
          "name": "spender",
          "type": "address"
        },
        {
          "internalType": "uint256",
          "name": "allowance",
          "type": "uint256"
        },
        {
          "internalType": "uint256",
          "name": "needed",
          "type": "uint256"
        }
      ],
      "name": "ERC20InsufficientAllowance",
      "type": "error"
    },
    {
      "inputs": [
        {
          "internalType": "address",
          "name": "sender",
          "type": "address"
        },
        {
          "internalType": "uint256",
          "name": "balance",
          "type": "uint256"
        },
        {
          "internalType": "uint256",
          "name": "needed",
          "type": "uint256"
        }
      ],
      "name": "ERC20InsufficientBalance",
      "type": "error"
    },
    {
      "inputs": [
        {
          "internalType": "address",
          "name": "approver",
          "type": "address"
        }
      ],
      "name": "ERC20InvalidApprover",
      "type": "error"
    },
    {
      "inputs": [
        {
          "internalType": "address",
          "name": "receiver",
          "type": "address"
        }
      ],
      "name": "ERC20InvalidReceiver",
      "type": "error"
    },
    {
      "inputs": [
        {
          "internalType": "address",
          "name": "sender",
          "type": "address"
        }
      ],
      "name": "ERC20InvalidSender",
      "type": "error"
    },
    {
      "inputs": [
        {
          "internalType": "address",
          "name": "spender",
          "type": "address"
        }
      ],
      "name": "ERC20InvalidSpender",
      "type": "error"
    },
    {
      "inputs": [
        {
          "internalType": "address",
          "name": "owner",
          "type": "address"
        }
      ],
      "name": "OwnableInvalidOwner",
      "type": "error"
    },
    {
      "inputs": [
        {
          "internalType": "address",
          "name": "account",
          "type": "address"
        }
      ],
      "name": "OwnableUnauthorizedAccount",
      "type": "error"
    },
    {
      "anonymous": false,
      "inputs": [
        {
          "indexed": true,
          "internalType": "address",
          "name": "owner",
          "type": "address"
        },
        {
          "indexed": true,
          "internalType": "address",
          "name": "spender",
          "type": "address"
        },
        {
          "indexed": false,
          "internalType": "uint256",
          "name": "value",
          "type": "uint256"
        }
      ],
      "name": "Approval",
      "type": "event"
    },
    {
      "anonymous": false,
      "inputs": [
        {
          "indexed": true,
          "internalType": "address",
          "name": "previousOwner",
          "type": "address"
        },
        {
          "indexed": true,
          "internalType": "address",
          "name": "newOwner",
          "type": "address"
        }
      ],
      "name": "OwnershipTransferred",
      "type": "event"
    },
    {
      "anonymous": false,
      "inputs": [
        {
          "indexed": true,
          "internalType": "address",
          "name": "from",
          "type": "address"
        },
        {
          "indexed": true,
          "internalType": "address",
          "name": "to",
          "type": "address"
        },
        {
          "indexed": false,
          "internalType": "uint256",
          "name": "value",
          "type": "uint256"
        }
      ],
      "name": "Transfer",
      "type": "event"
    },
    {
      "inputs": [
        {
          "internalType": "address",
          "name": "owner",
          "type": "address"
        },
        {
          "internalType": "address",
          "name": "spender",
          "type": "address"
        }
      ],
      "name": "allowance",
      "outputs": [
        {
          "internalType": "uint256",
          "name": "",
          "type": "uint256"
        }
      ],
      "stateMutability": "view",
      "type": "function",
      "constant": true
    },
    {
      "inputs": [
        {
          "internalType": "address",
          "name": "spender",
          "type": "address"
        },
        {
          "internalType": "uint256",
          "name": "value",
          "type": "uint256"
        }
      ],
      "name": "approve",
      "outputs": [
        {
          "internalType": "bool",
          "name": "",
          "type": "bool"
        }
      ],
      "stateMutability": "nonpayable",
      "type": "function"
    },
    {
      "inputs": [
        {
          "internalType": "address",
          "name": "account",
          "type": "address"
        }
      ],
      "name": "balanceOf",
      "outputs": [
        {
          "internalType": "uint256",
          "name": "",
          "type": "uint256"
        }
      ],
      "stateMutability": "view",
      "type": "function",
      "constant": true
    },
    {
      "inputs": [],
      "name": "decimals",
      "outputs": [
        {
          "internalType": "uint8",
          "name": "",
          "type": "uint8"
        }
      ],
      "stateMutability": "view",
      "type": "function",
      "constant": true
    },
    {
      "inputs": [],
      "name": "name",
      "outputs": [
        {
          "internalType": "string",
          "name": "",
          "type": "string"
        }
      ],
      "stateMutability": "view",
      "type": "function",
      "constant": true
    },
    {
      "inputs": [],
      "name": "owner",
      "outputs": [
        {
          "internalType": "address",
          "name": "",
          "type": "address"
        }
      ],
      "stateMutability": "view",
      "type": "function",
      "constant": true
    },
    {
      "inputs": [
        {
          "internalType": "uint256",
          "name": "",
          "type": "uint256"
        }
      ],
      "name": "physicsUnits",
      "outputs": [
        {
          "internalType": "string",
          "name": "",
          "type": "string"
        }
      ],
      "stateMutability": "view",
      "type": "function",
      "constant": true
    },
    {
      "inputs": [],
      "name": "renounceOwnership",
      "outputs": [],
      "stateMutability": "nonpayable",
      "type": "function"
    },
    {
      "inputs": [],
      "name": "symbol",
      "outputs": [
        {
          "internalType": "string",
          "name": "",
          "type": "string"
        }
      ],
      "stateMutability": "view",
      "type": "function",
      "constant": true
    },
    {
      "inputs": [],
      "name": "totalSupply",
      "outputs": [
        {
          "internalType": "uint256",
          "name": "",
          "type": "uint256"
        }
      ],
      "stateMutability": "view",
      "type": "function",
      "constant": true
    },
    {
      "inputs": [
        {
          "internalType": "address",
          "name": "to",
          "type": "address"
        },
        {
          "internalType": "uint256",
          "name": "value",
          "type": "uint256"
        }
      ],
      "name": "transfer",
      "outputs": [
        {
          "internalType": "bool",
          "name": "",
          "type": "bool"
        }
      ],
      "stateMutability": "nonpayable",
      "type": "function"
    },
    {
      "inputs": [
        {
          "internalType": "address",
          "name": "from",
          "type": "address"
        },
        {
          "internalType": "address",
          "name": "to",
          "type": "address"
        },
        {
          "internalType": "uint256",
          "name": "value",
          "type": "uint256"
        }
      ],
      "name": "transferFrom",
      "outputs": [
        {
          "internalType": "bool",
          "name": "",
          "type": "bool"
        }
      ],
      "stateMutability": "nonpayable",
      "type": "function"
    },
    {
      "inputs": [
        {
          "internalType": "address",
          "name": "newOwner",
          "type": "address"
        }
      ],
      "name": "transferOwnership",
      "outputs": [],
      "stateMutability": "nonpayable",
      "type": "function"
    },
    {
      "inputs": [
        {
          "internalType": "string",
          "name": "unit",
          "type": "string"
        },
        {
          "internalType": "uint256",
          "name": "amount",
          "type": "uint256"
        }
      ],
      "name": "convertToPhysics",
      "outputs": [],
      "stateMutability": "nonpayable",
      "type": "function"
    },
    {
      "inputs": [
        {
          "internalType": "uint256",
          "name": "amount",
          "type": "uint256"
        }
      ],
      "name": "massiveMint",
      "outputs": [],
      "stateMutability": "nonpayable",
      "type": "function"
    }
  ],
  "bytecode": "0x60806040526040518060c001604052806040518060400160405280600181526020017f4e0000000000000000000000000000000000000000000000000000000000000081525081526020016040518060400160405280600181526020017f570000000000000000000000000000000000000000000000000000000000000081525081526020016040518060400160405280600181526020017f4a0000000000000000000000000000000000000000000000000000000000000081525081526020016040518060400160405280600381526020017f627073000000000000000000000000000000000000000000000000000000000081525081526020016040518060400160405280600381526020017f626974000000000000000000000000000000000000000000000000000000000081525081526020016040518060400160405280600481526020017f627974650000000000000000000000000000000000000000000000000000000081525081525060069060066200018192919062000667565b503480156200018e575f80fd5b50336040518060400160405280601281526020017f50757265205068797369637320417373657400000000000000000000000000008152506040518060400160405280600881526020017f505552452d50485900000000000000000000000000000000000000000000000081525081600390816200020d9190620009b0565b5080600490816200021f9190620009b0565b5050505f73ffffffffffffffffffffffffffffffffffffffff168173ffffffffffffffffffffffffffffffffffffffff160362000295575f6040517f1e4fbdf70000000000000000000000000000000000000000000000000000000081526004016200028c919062000ad7565b60405180910390fd5b620002a681620002ee60201b60201c565b50620002e833620002bc620003b160201b60201c565b600a620002ca919062000c7b565b6402540be400620002dc919062000ccb565b620003b960201b60201c565b62000db6565b5f60055f9054906101000a900473ffffffffffffffffffffffffffffffffffffffff1690508160055f6101000a81548173ffffffffffffffffffffffffffffffffffffffff021916908373ffffffffffffffffffffffffffffffffffffffff1602179055508173ffffffffffffffffffffffffffffffffffffffff168173ffffffffffffffffffffffffffffffffffffffff167f8be0079c531659141344cd1fd0a4f28419497f9722a3daafe3b4186f6b6457e060405160405180910390a35050565b5f6012905090565b5f73ffffffffffffffffffffffffffffffffffffffff168273ffffffffffffffffffffffffffffffffffffffff16036200042c575f6040517fec442f0500000000000000000000000000000000000000000000000000000000815260040162000423919062000ad7565b60405180910390fd5b6200043f5f83836200044360201b60201c565b5050565b5f73ffffffffffffffffffffffffffffffffffffffff168373ffffffffffffffffffffffffffffffffffffffff160362000497578060025f8282546200048a919062000d15565b9250508190555062000568565b5f805f8573ffffffffffffffffffffffffffffffffffffffff1673ffffffffffffffffffffffffffffffffffffffff1681526020019081526020015f205490508181101562000523578381836040517fe450d38c0000000000000000000000000000000000000000000000000000000081526004016200051a9392919062000d60565b60405180910390fd5b8181035f808673ffffffffffffffffffffffffffffffffffffffff1673ffffffffffffffffffffffffffffffffffffffff1681526020019081526020015f2081905550505b5f73ffffffffffffffffffffffffffffffffffffffff168273ffffffffffffffffffffffffffffffffffffffff1603620005b1578060025f8282540392505081905550620005fb565b805f808473ffffffffffffffffffffffffffffffffffffffff1673ffffffffffffffffffffffffffffffffffffffff1681526020019081526020015f205f82825401925050819055505b8173ffffffffffffffffffffffffffffffffffffffff168373ffffffffffffffffffffffffffffffffffffffff167fddf252ad1be2c89b69c2b068fc378daa952ba7f163c4a11628f55a4df523b3ef836040516200065a919062000d9b565b60405180910390a3505050565b828054828255905f5260205f20908101928215620006b2579160200282015b82811115620006b1578251829081620006a09190620009b0565b509160200191906001019062000686565b5b509050620006c19190620006c5565b5090565b5b80821115620006e8575f8181620006de9190620006ec565b50600101620006c6565b5090565b508054620006fa90620007b0565b5f825580601f106200070d57506200072c565b601f0160209004905f5260205f20908101906200072b91906200072f565b5b50565b5b8082111562000748575f815f90555060010162000730565b5090565b5f81519050919050565b7f4e487b71000000000000000000000000000000000000000000000000000000005f52604160045260245ffd5b7f4e487b71000000000000000000000000000000000000000000000000000000005f52602260045260245ffd5b5f6002820490506001821680620007c857607f821691505b602082108103620007de57620007dd62000783565b5b50919050565b5f819050815f5260205f209050919050565b5f6020601f8301049050919050565b5f82821b905092915050565b5f60088302620008427fffffffffffffffffffffffffffffffffffffffffffffffffffffffffffffffff8262000805565b6200084e868362000805565b95508019841693508086168417925050509392505050565b5f819050919050565b5f819050919050565b5f62000898620008926200088c8462000866565b6200086f565b62000866565b9050919050565b5f819050919050565b620008b38362000878565b620008cb620008c2826200089f565b84845462000811565b825550505050565b5f90565b620008e1620008d3565b620008ee818484620008a8565b505050565b5b818110156200091557620009095f82620008d7565b600181019050620008f4565b5050565b601f82111562000964576200092e81620007e4565b6200093984620007f6565b8101602085101562000949578190505b620009616200095885620007f6565b830182620008f3565b50505b505050565b5f82821c905092915050565b5f620009865f198460080262000969565b1980831691505092915050565b5f620009a0838362000975565b9150826002028217905092915050565b620009bb826200074c565b67ffffffffffffffff811115620009d757620009d662000756565b5b620009e38254620007b0565b620009f082828562000919565b5f60209050601f83116001811462000a26575f841562000a11578287015190505b62000a1d858262000993565b86555062000a8c565b601f19841662000a3686620007e4565b5f5b8281101562000a5f5784890151825560018201915060208501945060208101905062000a38565b8683101562000a7f578489015162000a7b601f89168262000975565b8355505b6001600288020188555050505b505050505050565b5f73ffffffffffffffffffffffffffffffffffffffff82169050919050565b5f62000abf8262000a94565b9050919050565b62000ad18162000ab3565b82525050565b5f60208201905062000aec5f83018462000ac6565b92915050565b7f4e487b71000000000000000000000000000000000000000000000000000000005f52601160045260245ffd5b5f8160011c9050919050565b5f808291508390505b600185111562000b7c5780860481111562000b545762000b5362000af2565b5b600185161562000b645780820291505b808102905062000b748562000b1f565b945062000b34565b94509492505050565b5f8262000b96576001905062000c68565b8162000ba5575f905062000c68565b816001811462000bbe576002811462000bc95762000bff565b600191505062000c68565b60ff84111562000bde5762000bdd62000af2565b5b8360020a91508482111562000bf85762000bf762000af2565b5b5062000c68565b5060208310610133831016604e8410600b841016171562000c395782820a90508381111562000c335762000c3262000af2565b5b62000c68565b62000c48848484600162000b2b565b9250905081840481111562000c625762000c6162000af2565b5b81810290505b9392505050565b5f60ff82169050919050565b5f62000c878262000866565b915062000c948362000c6f565b925062000cc37fffffffffffffffffffffffffffffffffffffffffffffffffffffffffffffffff848462000b85565b905092915050565b5f62000cd78262000866565b915062000ce48362000866565b925082820262000cf48162000866565b9150828204841483151762000d0e5762000d0d62000af2565b5b5092915050565b5f62000d218262000866565b915062000d2e8362000866565b925082820190508082111562000d495762000d4862000af2565b5b92915050565b62000d5a8162000866565b82525050565b5f60608201905062000d755f83018662000ac6565b62000d84602083018562000d4f565b62000d93604083018462000d4f565b949350505050565b5f60208201905062000db05f83018462000d4f565b92915050565b61140f8062000dc45f395ff3fe608060405234801561000f575f80fd5b50600436106100f3575f3560e01c806370a082311161009557806395d89b411161006457806395d89b4114610271578063a9059cbb1461028f578063dd62ed3e146102bf578063f2fde38b146102ef576100f3565b806370a08231146101fd578063715018a61461022d57806386a08ca9146102375780638da5cb5b14610253576100f3565b806323345d6a116100d157806323345d6a1461016357806323b872dd1461017f578063303ebaa0146101af578063313ce567146101df576100f3565b806306fdde03146100f7578063095ea7b31461011557806318160ddd14610145575b5f80fd5b6100ff61030b565b60405161010c9190610eca565b60405180910390f35b61012f600480360381019061012a9190610f88565b61039b565b60405161013c9190610fe0565b60405180910390f35b61014d6103bd565b60405161015a9190611008565b60405180910390f35b61017d6004803603810190610178919061114d565b6103c6565b005b610199600480360381019061019491906111a7565b6103ca565b6040516101a69190610fe0565b60405180910390f35b6101c960048036038101906101c491906111f7565b6103f8565b6040516101d69190610eca565b60405180910390f35b6101e761049e565b6040516101f4919061123d565b60405180910390f35b61021760048036038101906102129190611256565b6104a6565b6040516102249190611008565b60405180910390f35b6102356104eb565b005b610251600480360381019061024c91906111f7565b6104fe565b005b61025b610513565b6040516102689190611290565b60405180910390f35b61027961053b565b6040516102869190610eca565b60405180910390f35b6102a960048036038101906102a49190610f88565b6105cb565b6040516102b69190610fe0565b60405180910390f35b6102d960048036038101906102d491906112a9565b6105ed565b6040516102e69190611008565b60405180910390f35b61030960048036038101906103049190611256565b61066f565b005b60606003805461031a90611314565b80601f016020809104026020016040519081016040528092919081815260200182805461034690611314565b80156103915780601f1061036857610100808354040283529160200191610391565b820191905f5260205f20905b81548152906001019060200180831161037457829003601f168201915b5050505050905090565b5f806103a56106f3565b90506103b28185856106fa565b600191505092915050565b5f600254905090565b5050565b5f806103d46106f3565b90506103e185828561070c565b6103ec85858561079f565b60019150509392505050565b60068181548110610407575f80fd5b905f5260205f20015f91509050805461041f90611314565b80601f016020809104026020016040519081016040528092919081815260200182805461044b90611314565b80156104965780601f1061046d57610100808354040283529160200191610496565b820191905f5260205f20905b81548152906001019060200180831161047957829003601f168201915b505050505081565b5f6012905090565b5f805f8373ffffffffffffffffffffffffffffffffffffffff1673ffffffffffffffffffffffffffffffffffffffff1681526020019081526020015f20549050919050565b6104f361088f565b6104fc5f610916565b565b61050661088f565b61051033826109d9565b50565b5f60055f9054906101000a900473ffffffffffffffffffffffffffffffffffffffff16905090565b60606004805461054a90611314565b80601f016020809104026020016040519081016040528092919081815260200182805461057690611314565b80156105c15780601f10610598576101008083540402835291602001916105c1565b820191905f5260205f20905b8154815290600101906020018083116105a457829003601f168201915b5050505050905090565b5f806105d56106f3565b90506105e281858561079f565b600191505092915050565b5f60015f8473ffffffffffffffffffffffffffffffffffffffff1673ffffffffffffffffffffffffffffffffffffffff1681526020019081526020015f205f8373ffffffffffffffffffffffffffffffffffffffff1673ffffffffffffffffffffffffffffffffffffffff1681526020019081526020015f2054905092915050565b61067761088f565b5f73ffffffffffffffffffffffffffffffffffffffff168173ffffffffffffffffffffffffffffffffffffffff16036106e7575f6040517f1e4fbdf70000000000000000000000000000000000000000000000000000000081526004016106de9190611290565b60405180910390fd5b6106f081610916565b50565b5f33905090565b6107078383836001610a58565b505050565b5f61071784846105ed565b90507fffffffffffffffffffffffffffffffffffffffffffffffffffffffffffffffff811015610799578181101561078a578281836040517ffb8f41b200000000000000000000000000000000000000000000000000000000815260040161078193929190611344565b60405180910390fd5b61079884848484035f610a58565b5b50505050565b5f73ffffffffffffffffffffffffffffffffffffffff168373ffffffffffffffffffffffffffffffffffffffff160361080f575f6040517f96c6fd1e0000000000000000000000000000000000000000000000000000000081526004016108069190611290565b60405180910390fd5b5f73ffffffffffffffffffffffffffffffffffffffff168273ffffffffffffffffffffffffffffffffffffffff160361087f575f6040517fec442f050000000000000000000000000000000000000000000000000000000081526004016108769190611290565b60405180910390fd5b61088a838383610c27565b505050565b6108976106f3565b73ffffffffffffffffffffffffffffffffffffffff166108b5610513565b73ffffffffffffffffffffffffffffffffffffffff1614610914576108d86106f3565b6040517f118cdaa700000000000000000000000000000000000000000000000000000000815260040161090b9190611290565b60405180910390fd5b565b5f60055f9054906101000a900473ffffffffffffffffffffffffffffffffffffffff1690508160055f6101000a81548173ffffffffffffffffffffffffffffffffffffffff021916908373ffffffffffffffffffffffffffffffffffffffff1602179055508173ffffffffffffffffffffffffffffffffffffffff168173ffffffffffffffffffffffffffffffffffffffff167f8be0079c531659141344cd1fd0a4f28419497f9722a3daafe3b4186f6b6457e060405160405180910390a35050565b5f73ffffffffffffffffffffffffffffffffffffffff168273ffffffffffffffffffffffffffffffffffffffff1603610a49575f6040517fec442f05000000000000000000000000000000000000000000000000000000008152600401610a409190611290565b60405180910390fd5b610a545f8383610c27565b5050565b5f73ffffffffffffffffffffffffffffffffffffffff168473ffffffffffffffffffffffffffffffffffffffff1603610ac8575f6040517fe602df05000000000000000000000000000000000000000000000000000000008152600401610abf9190611290565b60405180910390fd5b5f73ffffffffffffffffffffffffffffffffffffffff168373ffffffffffffffffffffffffffffffffffffffff1603610b38575f6040517f94280d62000000000000000000000000000000000000000000000000000000008152600401610b2f9190611290565b60405180910390fd5b8160015f8673ffffffffffffffffffffffffffffffffffffffff1673ffffffffffffffffffffffffffffffffffffffff1681526020019081526020015f205f8573ffffffffffffffffffffffffffffffffffffffff1673ffffffffffffffffffffffffffffffffffffffff1681526020019081526020015f20819055508015610c21578273ffffffffffffffffffffffffffffffffffffffff168473ffffffffffffffffffffffffffffffffffffffff167f8c5be1e5ebec7d5bd14f71427d1e84f3dd0314c0f7b2291e5b200ac8c7c3b92584604051610c189190611008565b60405180910390a35b50505050565b5f73ffffffffffffffffffffffffffffffffffffffff168373ffffffffffffffffffffffffffffffffffffffff1603610c77578060025f828254610c6b91906113a6565b92505081905550610d45565b5f805f8573ffffffffffffffffffffffffffffffffffffffff1673ffffffffffffffffffffffffffffffffffffffff1681526020019081526020015f2054905081811015610d00578381836040517fe450d38c000000000000000000000000000000000000000000000000000000008152600401610cf793929190611344565b60405180910390fd5b8181035f808673ffffffffffffffffffffffffffffffffffffffff1673ffffffffffffffffffffffffffffffffffffffff1681526020019081526020015f2081905550505b5f73ffffffffffffffffffffffffffffffffffffffff168273ffffffffffffffffffffffffffffffffffffffff1603610d8c578060025f8282540392505081905550610dd6565b805f808473ffffffffffffffffffffffffffffffffffffffff1673ffffffffffffffffffffffffffffffffffffffff1681526020019081526020015f205f82825401925050819055505b8173ffffffffffffffffffffffffffffffffffffffff168373ffffffffffffffffffffffffffffffffffffffff167fddf252ad1be2c89b69c2b068fc378daa952ba7f163c4a11628f55a4df523b3ef83604051610e339190611008565b60405180910390a3505050565b5f81519050919050565b5f82825260208201905092915050565b5f5b83811015610e77578082015181840152602081019050610e5c565b5f8484015250505050565b5f601f19601f8301169050919050565b5f610e9c82610e40565b610ea68185610e4a565b9350610eb6818560208601610e5a565b610ebf81610e82565b840191505092915050565b5f6020820190508181035f830152610ee28184610e92565b905092915050565b5f604051905090565b5f80fd5b5f80fd5b5f73ffffffffffffffffffffffffffffffffffffffff82169050919050565b5f610f2482610efb565b9050919050565b610f3481610f1a565b8114610f3e575f80fd5b50565b5f81359050610f4f81610f2b565b92915050565b5f819050919050565b610f6781610f55565b8114610f71575f80fd5b50565b5f81359050610f8281610f5e565b92915050565b5f8060408385031215610f9e57610f9d610ef3565b5b5f610fab85828601610f41565b9250506020610fbc85828601610f74565b9150509250929050565b5f8115159050919050565b610fda81610fc6565b82525050565b5f602082019050610ff35f830184610fd1565b92915050565b61100281610f55565b82525050565b5f60208201905061101b5f830184610ff9565b92915050565b5f80fd5b5f80fd5b7f4e487b71000000000000000000000000000000000000000000000000000000005f52604160045260245ffd5b61105f82610e82565b810181811067ffffffffffffffff8211171561107e5761107d611029565b5b80604052505050565b5f611090610eea565b905061109c8282611056565b919050565b5f67ffffffffffffffff8211156110bb576110ba611029565b5b6110c482610e82565b9050602081019050919050565b828183375f83830152505050565b5f6110f16110ec846110a1565b611087565b90508281526020810184848401111561110d5761110c611025565b5b6111188482856110d1565b509392505050565b5f82601f83011261113457611133611021565b5b81356111448482602086016110df565b91505092915050565b5f806040838503121561116357611162610ef3565b5b5f83013567ffffffffffffffff8111156111805761117f610ef7565b5b61118c85828601611120565b925050602061119d85828601610f74565b9150509250929050565b5f805f606084860312156111be576111bd610ef3565b5b5f6111cb86828701610f41565b93505060206111dc86828701610f41565b92505060406111ed86828701610f74565b9150509250925092565b5f6020828403121561120c5761120b610ef3565b5b5f61121984828501610f74565b91505092915050565b5f60ff82169050919050565b61123781611222565b82525050565b5f6020820190506112505f83018461122e565b92915050565b5f6020828403121561126b5761126a610ef3565b5b5f61127884828501610f41565b91505092915050565b61128a81610f1a565b82525050565b5f6020820190506112a35f830184611281565b92915050565b5f80604083850312156112bf576112be610ef3565b5b5f6112cc85828601610f41565b92505060206112dd85828601610f41565b9150509250929050565b7f4e487b71000000000000000000000000000000000000000000000000000000005f52602260045260245ffd5b5f600282049050600182168061132b57607f821691505b60208210810361133e5761133d6112e7565b5b50919050565b5f6060820190506113575f830186611281565b6113646020830185610ff9565b6113716040830184610ff9565b949350505050565b7f4e487b71000000000000000000000000000000000000000000000000000000005f52601160045260245ffd5b5f6113b082610f55565b91506113bb83610f55565b92508282019050808211156113d3576113d2611379565b5b9291505056fea26469706673582212204d85ba3df1e9bbb12e09fb8521d0508932fd94858f68d22ef4a980d99bf2afc364736f6c63430008150033",
  "immutableReferences": {},
  "source": "// SPDX-License-Identifier: MIT\npragma solidity ^0.8.20;\n\nimport \"@openzeppelin/contracts/token/ERC20/ERC20.sol\";\nimport \"@openzeppelin/contracts/access/Ownable.sol\";\n\n/**\n * @title PurePhysicsAssets\n * @dev 1N, 1W, 1J, 1bps, 1bit, 1byte \n */\ncontract PurePhysicsAssets is ERC20, Ownable {\n    // \n    string[] public physicsUnits = [\"N\", \"W\", \"J\", \"bps\", \"bit\", \"byte\"];\n\n    constructor() ERC20(\"Pure Physics Asset\", \"PURE-PHY\") Ownable(msg.sender) {\n        // 100\n        // (18 10^10 * 10^18)\n        _mint(msg.sender, 10000000000 * 10 ** decimals());\n    }\n\n    /**\n     * @dev (USD, JPY)\n     */\n    function convertToPhysics(string memory unit, uint256 amount) public {\n        // (1.618)\n        //  N, W, J \n    }\n\n    /**\n     * @dev 512\n     */\n    function massiveMint(uint256 amount) public onlyOwner {\n        _mint(msg.sender, amount);\n    }\n}\n",
  "sourcePath": "/home/TabulaRasaPurePort/TabulaRasaPurePortB/contracts/PurePhysicsAssets.sol",
  "compiler": {
    "name": "solc",
    "version": "0.8.21+commit.d9974bed.Emscripten.clang"
  },
  "schemaVersion": "3.4.16",
  "updatedAt": "2026-02-11T09:34:32.739Z",
  "networkType": "ethereum",
  "devdoc": {
    "details": "1N, 1W, 1J, 1bps, 1bit, 1byte ",
    "errors": {
      "ERC20InsufficientAllowance(address,uint256,uint256)": [
        {
          "details": "Indicates a failure with the `spender`s `allowance`. Used in transfers.",
          "params": {
            "allowance": "Amount of tokens a `spender` is allowed to operate with.",
            "needed": "Minimum amount required to perform a transfer.",
            "spender": "Address that may be allowed to operate on tokens without being their owner."
          }
        }
      ],
      "ERC20InsufficientBalance(address,uint256,uint256)": [
        {
          "details": "Indicates an error related to the current `balance` of a `sender`. Used in transfers.",
          "params": {
            "balance": "Current balance for the interacting account.",
            "needed": "Minimum amount required to perform a transfer.",
            "sender": "Address whose tokens are being transferred."
          }
        }
      ],
      "ERC20InvalidApprover(address)": [
        {
          "details": "Indicates a failure with the `approver` of a token to be approved. Used in approvals.",
          "params": {
            "approver": "Address initiating an approval operation."
          }
        }
      ],
      "ERC20InvalidReceiver(address)": [
        {
          "details": "Indicates a failure with the token `receiver`. Used in transfers.",
          "params": {
            "receiver": "Address to which tokens are being transferred."
          }
        }
      ],
      "ERC20InvalidSender(address)": [
        {
          "details": "Indicates a failure with the token `sender`. Used in transfers.",
          "params": {
            "sender": "Address whose tokens are being transferred."
          }
        }
      ],
      "ERC20InvalidSpender(address)": [
        {
          "details": "Indicates a failure with the `spender` to be approved. Used in approvals.",
          "params": {
            "spender": "Address that may be allowed to operate on tokens without being their owner."
          }
        }
      ],
      "OwnableInvalidOwner(address)": [
        {
          "details": "The owner is not a valid owner account. (eg. `address(0)`)"
        }
      ],
      "OwnableUnauthorizedAccount(address)": [
        {
          "details": "The caller account is not authorized to perform an operation."
        }
      ]
    },
    "events": {
      "Approval(address,address,uint256)": {
        "details": "Emitted when the allowance of a `spender` for an `owner` is set by a call to {approve}. `value` is the new allowance."
      },
      "Transfer(address,address,uint256)": {
        "details": "Emitted when `value` tokens are moved from one account (`from`) to another (`to`). Note that `value` may be zero."
      }
    },
    "kind": "dev",
    "methods": {
      "allowance(address,address)": {
        "details": "Returns the remaining number of tokens that `spender` will be allowed to spend on behalf of `owner` through {transferFrom}. This is zero by default. This value changes when {approve} or {transferFrom} are called."
      },
      "approve(address,uint256)": {
        "details": "See {IERC20-approve}. NOTE: If `value` is the maximum `uint256`, the allowance is not updated on `transferFrom`. This is semantically equivalent to an infinite approval. Requirements: - `spender` cannot be the zero address."
      },
      "balanceOf(address)": {
        "details": "Returns the value of tokens owned by `account`."
      },
      "convertToPhysics(string,uint256)": {
        "details": "(USD, JPY)"
      },
      "decimals()": {
        "details": "Returns the number of decimals used to get its user representation. For example, if `decimals` equals `2`, a balance of `505` tokens should be displayed to a user as `5.05` (`505 / 10 ** 2`). Tokens usually opt for a value of 18, imitating the relationship between Ether and Wei. This is the default value returned by this function, unless it's overridden. NOTE: This information is only used for _display_ purposes: it in no way affects any of the arithmetic of the contract, including {IERC20-balanceOf} and {IERC20-transfer}."
      },
      "massiveMint(uint256)": {
        "details": "512"
      },
      "name()": {
        "details": "Returns the name of the token."
      },
      "owner()": {
        "details": "Returns the address of the current owner."
      },
      "renounceOwnership()": {
        "details": "Leaves the contract without owner. It will not be possible to call `onlyOwner` functions. Can only be called by the current owner. NOTE: Renouncing ownership will leave the contract without an owner, thereby disabling any functionality that is only available to the owner."
      },
      "symbol()": {
        "details": "Returns the symbol of the token, usually a shorter version of the name."
      },
      "totalSupply()": {
        "details": "Returns the value of tokens in existence."
      },
      "transfer(address,uint256)": {
        "details": "See {IERC20-transfer}. Requirements: - `to` cannot be the zero address. - the caller must have a balance of at least `value`."
      },
      "transferFrom(address,address,uint256)": {
        "details": "See {IERC20-transferFrom}. Skips emitting an {Approval} event indicating an allowance update. This is not required by the ERC. See {xref-ERC20-_approve-address-address-uint256-bool-}[_approve]. NOTE: Does not update the allowance if the current allowance is the maximum `uint256`. Requirements: - `from` and `to` cannot be the zero address. - `from` must have a balance of at least `value`. - the caller must have allowance for ``from``'s tokens of at least `value`."
      },
      "transferOwnership(address)": {
        "details": "Transfers ownership of the contract to a new account (`newOwner`). Can only be called by the current owner."
      }
    },
    "title": "PurePhysicsAssets",
    "version": 1
  },
  "userdoc": {
    "kind": "user",
    "methods": {},
    "version": 1
  }
}